{
  "contractName": "PublicKeyMerkleTree",
  "abi": [
    {
      "inputs": [],
      "stateMutability": "nonpayable",
      "type": "constructor"
    },
    {
      "anonymous": false,
      "inputs": [
        {
          "indexed": true,
          "internalType": "address",
          "name": "sender",
          "type": "address"
        },
        {
          "indexed": false,
          "internalType": "bytes",
          "name": "publicKey",
          "type": "bytes"
        }
      ],
      "name": "PublicKeyAdded",
      "type": "event"
    },
    {
      "inputs": [],
      "name": "owner",
      "outputs": [
        {
          "internalType": "address",
          "name": "",
          "type": "address"
        }
      ],
      "stateMutability": "view",
      "type": "function",
      "constant": true
    },
    {
      "inputs": [],
      "name": "requiredAmount",
      "outputs": [
        {
          "internalType": "uint256",
          "name": "",
          "type": "uint256"
        }
      ],
      "stateMutability": "view",
      "type": "function",
      "constant": true
    },
    {
      "inputs": [
        {
          "internalType": "bytes",
          "name": "publicKey",
          "type": "bytes"
        }
      ],
      "name": "addPublicKey",
      "outputs": [],
      "stateMutability": "payable",
      "type": "function",
      "payable": true
    },
    {
      "inputs": [],
      "name": "withdraw",
      "outputs": [],
      "stateMutability": "nonpayable",
      "type": "function"
    }
  ],
  "bytecode": "0x608060405234801561000f575f80fd5b50335f806101000a81548173ffffffffffffffffffffffffffffffffffffffff021916908373ffffffffffffffffffffffffffffffffffffffff1602179055506106518061005c5f395ff3fe60806040526004361061003e575f3560e01c80633ccfd60b1461004257806348b9ef40146100585780634e21a517146100825780638da5cb5b1461009e575b5f80fd5b34801561004d575f80fd5b506100566100c8565b005b348015610063575f80fd5b5061006c6101ba565b604051610079919061029c565b60405180910390f35b61009c60048036038101906100979190610402565b6101c6565b005b3480156100a9575f80fd5b506100b2610261565b6040516100bf9190610488565b60405180910390f35b5f8054906101000a900473ffffffffffffffffffffffffffffffffffffffff1673ffffffffffffffffffffffffffffffffffffffff163373ffffffffffffffffffffffffffffffffffffffff1614610155576040517f08c379a000000000000000000000000000000000000000000000000000000000815260040161014c906104fb565b60405180910390fd5b5f8054906101000a900473ffffffffffffffffffffffffffffffffffffffff1673ffffffffffffffffffffffffffffffffffffffff166108fc4790811502906040515f60405180830381858888f193505050501580156101b7573d5f803e3d5ffd5b50565b670de0b6b3a764000081565b670de0b6b3a76400003414610210576040517f08c379a000000000000000000000000000000000000000000000000000000000815260040161020790610563565b60405180910390fd5b3373ffffffffffffffffffffffffffffffffffffffff167f4d25697a43756ba59b2cfdd31964e736da03be78e71663d14fb44f55d17d49588260405161025691906105fb565b60405180910390a250565b5f8054906101000a900473ffffffffffffffffffffffffffffffffffffffff1681565b5f819050919050565b61029681610284565b82525050565b5f6020820190506102af5f83018461028d565b92915050565b5f604051905090565b5f80fd5b5f80fd5b5f80fd5b5f80fd5b5f601f19601f8301169050919050565b7f4e487b71000000000000000000000000000000000000000000000000000000005f52604160045260245ffd5b610314826102ce565b810181811067ffffffffffffffff82111715610333576103326102de565b5b80604052505050565b5f6103456102b5565b9050610351828261030b565b919050565b5f67ffffffffffffffff8211156103705761036f6102de565b5b610379826102ce565b9050602081019050919050565b828183375f83830152505050565b5f6103a66103a184610356565b61033c565b9050828152602081018484840111156103c2576103c16102ca565b5b6103cd848285610386565b509392505050565b5f82601f8301126103e9576103e86102c6565b5b81356103f9848260208601610394565b91505092915050565b5f60208284031215610417576104166102be565b5b5f82013567ffffffffffffffff811115610434576104336102c2565b5b610440848285016103d5565b91505092915050565b5f73ffffffffffffffffffffffffffffffffffffffff82169050919050565b5f61047282610449565b9050919050565b61048281610468565b82525050565b5f60208201905061049b5f830184610479565b92915050565b5f82825260208201905092915050565b7f4f6e6c7920746865206f776e65722063616e20776974686472617700000000005f82015250565b5f6104e5601b836104a1565b91506104f0826104b1565b602082019050919050565b5f6020820190508181035f830152610512816104d9565b9050919050565b7f496e636f727265637420616d6f756e74206f66204554482073656e74000000005f82015250565b5f61054d601c836104a1565b915061055882610519565b602082019050919050565b5f6020820190508181035f83015261057a81610541565b9050919050565b5f81519050919050565b5f82825260208201905092915050565b5f5b838110156105b857808201518184015260208101905061059d565b5f8484015250505050565b5f6105cd82610581565b6105d7818561058b565b93506105e781856020860161059b565b6105f0816102ce565b840191505092915050565b5f6020820190508181035f83015261061381846105c3565b90509291505056fea2646970667358221220525c51f8bd7da1dc413e0b3dcecce47323a622a40ff5f56c8b40d487da3d826a64736f6c63430008150033",
  "immutableReferences": {},
  "source": "// SPDX-License-Identifier: MIT\npragma solidity ^0.8.0;\n\ncontract PublicKeyMerkleTree {\n    uint256 public constant requiredAmount = 1 ether;\n    address public owner;\n\n    event PublicKeyAdded(address indexed sender, bytes publicKey);\n\n    constructor() {\n        owner = msg.sender;\n    }\n\n    function addPublicKey(bytes memory publicKey) public payable {\n        require(msg.value == requiredAmount, \"Incorrect amount of ETH sent\");\n\n        // Emit event with sender's address and public key\n        emit PublicKeyAdded(msg.sender, publicKey);\n    }\n\n    function withdraw() public {\n        require(msg.sender == owner, \"Only the owner can withdraw\");\n        payable(owner).transfer(address(this).balance);\n    }\n}\n",
  "sourcePath": "/home/jonathan/Documents/Blockchain/smartcontract/contracts/PublicKeyMerkleTree.sol",
  "compiler": {
    "name": "solc",
    "version": "0.8.21+commit.d9974bed.Emscripten.clang"
  },
  "schemaVersion": "3.4.16",
  "updatedAt": "2024-07-05T07:23:21.939Z",
  "networkType": "ethereum",
  "devdoc": {
    "kind": "dev",
    "methods": {},
    "version": 1
  },
  "userdoc": {
    "kind": "user",
    "methods": {},
    "version": 1
  }
}